:1004590050617373776F72643A004F4B20004552B5
:0204690052003F
:10018C001204457BFF7A0479597D017F011203BB70
:10019C001200038F1CE51C60F7D3940A5041C3E591
:1001AC00199404E51894005028AE1AAF1B7C007DFE
:1001BC000A1202768E1A8F1BE51C75F00A84E5F084
:1001CC00251BF51BE4351AF51A0519E519700205FE
:1001DC0018750C04AB1BAA1A7D017F021203FCE5F7
:1001EC001C640B7036E51BB43E0DE51AB415087B88
:1001FC00FF7A04796380067BFF7A0479677D0E7F32
:10020C00011203BBE4F51AF51BF518F519750C046E
:10021C00AB1BAA1A7D017F021203FCE51C640C6067
:10022C000302019CF51AF51BF518F519750C04ABB6
:0D023C001BAA1A7D017F021203FC02019C27
:10041900EF1FAC0670011E4C600B007D027CC7DC2F
:05042900FEDDFC80EB8C
:01042E0022AB
:06046B00C2A58F80D2A79C
:080471007F027EEFDEFEDFFCDE
:010479002260
:0A048600C2A612046BC2A7020471A3
:1003DE00CFCDCFCECCCE1202887C007D0A12028801
:0403EE00ED2430FFCB
:0A03F200D2A612046BC2A702047128
:10042F00AE07BE0104ED148006BE0209ED243F4461
:06043F0080FF120486227A
:100445007F381204867F0C1204867F061204867F8D
:040455000102048616
:0A049000AC0312042FAF040203F2C4
:0603BB008B088A09890A83
:1003C10012042FE4FDAB08AA09A90A8D82758300E6
:0C03D100120249FF60061203F20D80E9E1
:0103DD0022FD
:0C0388007F0AEA24FFFDE434FFFC7E0045
:080394008E0D8F0E8C0F8D10F1
:10039C007F017E00E4FBEBC39510E50F6480F874DD
:0E03AC008098500AAC0DAD0E1202760B80E860
:0103BA002220
:0403FC008A0A8B0BD3
:1004000012042FAA0CEAD39400400D120388AC0A00
:08041000AD0B1203DE1A80EDB2
:0104180022C1
:1002DD0012042FC3EA64809480400B7F2B1203F22B
:1002ED008A168B17800E7F2D1203F2C3E49BF51730
:1002FD00E49AF516AA15EAD39400400D120388ACC2
:09030D0016AD171203DE1A80ED93
:0103160022C4
:040317008A1F8B208E
:10031B0012042FAA21EAD3940040297F1012038ADA
:10032B00AC1FAD20CFCDCFCECCCE120288EF540F69
:10033B00FEC3940AEE5004243080022437FF1203CC
:04034B00F21A80D151
:01034F00228B
:040350008A248B254B
:1003540012042FAA26EAD394004028EA24FFFDE4DD
:1003640034FFFC7F027E00120394AC24AD25CFCD74
:10037400CFCECCCE120288EF54012430FF1203F208
:030384001A80D20A
:010387002253
:10000300E4F5087590FFC2932097137F14FE120442
:10001300193097FD7F147E0012041975080120968C
:10002300147F147E001204193096FD7F147E001293
:1000330004197508052095147F147E0012041930E5
:1000430095FD7F147E001204197508092094147F0E
:10005300147E001204193094FD7F147E00120419DB
:1000630075080D7590FFC2922097147F147E0012BD
:1000730004193097FD7F147E0012041975080220BD
:1000830096147F147E001204193096FD7F147E00AF
:100093001204197508062095147F147E00120419A2
:1000A3003095FD7F147E0012041975080A209414FC
:1000B3007F147E001204193094FD7F147E00120415
:1000C3001975080E7590FFC2912097147F147E0056
:1000D3001204193097FD7F147E001204197508036A
:1000E3002096147F147E001204193096FD7F147E2F
:1000F300001204197508072095147F147E0012045A
:10010300193095FD7F147E0012041975080B209495
:10011300147F147E001204193094FD7F147E0012A4
:10012300041975080F7590FFC2902097147F147EF1
:10013300001204193097FD7F147E0012041975080C
:10014300042096147F147E001204193096FD7F1448
:100153007E001204197508082095147F147E00127E
:1001630004193095FD7F147E0012041975080C20C4
:1001730094147F147E001204193094FD7F147E00C2
:08018300120419750810AF0801
:01018B002251
:0300000002047A7D
:0C047A00787FE4F6D8FD75812602018C25
:10024900BB010CE58229F582E5833AF583E022506A
:1002590006E92582F8E622BBFE06E92582F8E222B4
:0D026900E58229F582E5833AF583E49322CE
:10027600EF8DF0A4A8F0CF8CF0A428CE8DF0A42E9C
:02028600FE2256
:10028800BC000BBE0029EF8DF084FFADF022E4CC5A
:10029800F875F008EF2FFFEE33FEEC33FCEE9DEC23
:1002A800984005FCEE9DFE0FD5F0E9E4CEFD22ED69
:1002B800F8F5F0EE8420D21CFEADF075F008EF2FB3
:1002C800FFED33FD4007985006D5F0F222C398FDA4
:0502D8000FD5F0EA2241
:00000001FF
