:1004F60050617373776F726400204F4B0045525200
:0105060000F4
:08052A0002180000021A000093
:10018C001204E27BFF7A0479F67D017F0112045898
:10019C001200038F1CE51C60F7D3940A503BC3E597
:1001AC00199404E51894005022AE1AAF1B7C007D04
:1001BC000A1202878E1A8F1BE51C251BF51BE435D2
:1001CC001AF51A0519E51970020518750C04AB1B04
:1001DC00AA1A7D017F02120499E51C640B704DE58F
:1001EC001BB4D724E51AB4111FE4F518F519F51A48
:1001FC00F51B750C04AB1BAA1A7D017F0212049926
:10020C007BFF7A0479FF801DE4F518F519F51AF5D2
:10021C001B750C04AB1BAA1A7D017F021204997B7F
:10022C00FF7A0579037D0E7F02120458E51C640CDD
:10023C00600302019CF518F519F51AF51B750C04F1
:0E024C00AB1BAA1A7D017F0212049902019CCD
:1004B600EF1FAC0670011E4C600B007D027CC7DC92
:0504C600FEDDFC80EBEF
:0104CB00220E
:06050700C2A58F80D2A7FF
:08050D007F027EEFDEFEDFFC41
:0105150022C3
:0A051600C2A6120507C2A702050DD8
:10047B00CFCDCFCECCCE1202997C007D0A12029941
:04048B00ED2430FF2D
:0A048F00D2A6120507C2A702050D50
:1004CC00AE07BE0104ED148006BE0209ED243F44C4
:0604DC0080FF120516224C
:1004E2007F381205167F0C1205167F061205167F3D
:0404F20001020516E8
:0A052000AC031204CCAF0402048FF8
:060458008B088A09890AE5
:10045E001204CCE4FDAB08AA09A90A8D82758300AB
:0C046E0012025AFF600612048F0D80E994
:01047A00225F
:0C0425007F0AEA24FFFDE434FFFC7E00A7
:080431008E0D8F0E8C0F8D1053
:100439007F017E00E4FBEBC39510E50F6480F8743F
:0E0449008098500AAC0DAD0E1202870B80E8B1
:010457002282
:040499008A0A8B0B35
:10049D001204CCAA0CEAD39400400D120425AC0A28
:0804AD00AD0B12047B1A80ED77
:0104B5002224
:10037A001204CCC3EA64809480400B7F2B12048F52
:10038A008A168B17800E7F2D12048FC3E49BF517F4
:10039A00E49AF516AA15EAD39400400D120425AC86
:0903AA0016AD1712047B1A80ED58
:0103B3002227
:0403B4008A1F8B20F1
:1003B8001204CCAA21EAD3940040297F1012042702
:1003C800AC1FAD20CFCDCFCECCCE120299EF540FBB
:1003D800FEC3940AEE5004243080022437FF12042E
:0403E8008F1A80D117
:0103EC0022EE
:0403ED008A248B25AE
:1003F1001204CCAA26EAD394004028EA24FFFDE4A3
:1004010034FFFC7F027E00120431AC24AD25CFCD38
:10041100CFCECCCE120299EF54012430FF12048FBB
:030421001A80D26C
:0104240022B5
:10000300E4F5087590FFC2932097137F14FE120442
:10001300B63097FD7F147E001204B6750801209652
:10002300147F147E001204B63096FD7F147E0012F6
:1000330004B67508052095147F147E001204B630AB
:1000430095FD7F147E001204B67508092094147F71
:10005300147E001204B63094FD7F147E001204B6A1
:1000630075080D7590FFC2922097147F147E0012BD
:1000730004B63097FD7F147E001204B67508022083
:1000830096147F147E001204B63096FD7F147E0012
:100093001204B67508062095147F147E001204B668
:1000A3003095FD7F147E001204B675080A2094145F
:1000B3007F147E001204B63094FD7F147E00120478
:1000C300B675080E7590FFC2912097147F147E00B9
:1000D3001204B63097FD7F147E001204B675080330
:1000E3002096147F147E001204B63096FD7F147E92
:1000F300001204B67508072095147F147E001204BD
:10010300B63095FD7F147E001204B675080B20945B
:10011300147F147E001204B63094FD7F147E001207
:1001230004B675080F7590FFC2902097147F147E54
:10013300001204B63097FD7F147E001204B67508D2
:10014300042096147F147E001204B63096FD7F14AB
:100153007E001204B67508082095147F147E0012E1
:1001630004B63095FD7F147E001204B675080C208A
:1001730094147F147E001204B63094FD7F147E0025
:080183001204B6750810AF0864
:01018B002251
:030000000202EE0B
:0C02EE00787FE4F6D8FD75812602033508
:10025A00BB010CE58229F582E5833AF583E0225059
:10026A0006E92582F8E622BBFE06E92582F8E222A3
:0D027A00E58229F582E5833AF583E49322BD
:10028700EF8DF0A4A8F0CF8CF0A428CE8DF0A42E8B
:02029700FE2245
:10029900BC000BBE0029EF8DF084FFADF022E4CC49
:1002A900F875F008EF2FFFEE33FEEC33FCEE9DEC12
:1002B900984005FCEE9DFE0FD5F0E9E4CEFD22ED58
:1002C900F8F5F0EE8420D21CFEADF075F008EF2FA2
:1002D900FFED33FD4007985006D5F0F222C398FD93
:0502E9000FD5F0EA2230
:1002FA0002018CE493A3F8E493A34003F68001F28D
:10030A0008DFF48029E493A3F85407240CC8C33304
:10031A00C4540F4420C8834004F456800146F6DFD3
:10032A00E4800B010204081020408090052AE47E34
:10033A00019360BCA3FF543F30E509541FFEE493C8
:10034A00A360010ECF54C025E060A840B8E493A38F
:10035A00FAE493A3F8E493A3C8C582C8CAC583CABA
:10036A00F0A3C8C582C8CAC583CADFE9DEE780BE72
:0105320000C8
:00000001FF
