:100003001200C17D3C7C00E4FF12007D7D427C0038
:100013007F0112007D7DA97C007F0212007D7D851A
:100023007C007F0312007D7D857C007F0412007DB0
:100033007DA97C007F0512007D7D427C007F061236
:0D004300007D7D3C7C007F0712007D80B6B3
:10009F00EF1FAC0670011E4C600B007D027CC7DCAD
:0500AF00FEDDFC80EB0A
:0100B4002229
:02005000AD07FA
:10005200E4FB74807E00A803088006CEA2E713CEDC
:1000620013D8F8FFEDF582EF558224FF92B4D2B691
:0A007200C2B60BBB08DCD2B5C2B564
:01007C002261
:0500C100C2B6C2B52229
:10007D00AA07AF05120050AF027480A807088002CE
:10008D00C313D8FCF4F5807F017E0012009F7580AC
:02009D00FF2240
:030000000200B546
:0C00B500787FE4F6D8FD75810702000397
:00000001FF
