:1000C30075A0FE1200E212000E8F0AE50A60F7B473
:0F00D3000103750B01E50AB402ECE4F50B80E7BD
:03000B0002006F81
:0B006F00C0E0C0D075D000C000C0078A
:10007A00758A66758CFC0509E50970020508C39442
:10008A00F4E50894014029750800750900E50B702C
:10009A000DAFA07801EF08800123D8FDF5A0E50B8C
:1000AA00B4010DAFA07801EF08800103D8FDF5A0D7
:0900BA00D007D000D0D0D0E03214
:1000E2005389F0438901758A66758CFCC28DD28C66
:0700F200D2A9D2AFC2B9226E
:1000F900EF1FAC0670011E4C600B007D027CC7DC53
:05010900FEDDFC80EBAF
:01010E0022CE
:10000E00E4F50C20B1137F14FE1200F930B1FD7F20
:10001E00147E001200F9750C0120B0147F147E00BE
:10002E001200F930B0FD7F147E001200F9750C023B
:10003E0020B2147F147E001200F930B2FD7F147EC0
:10004E00001200F9750C0320B3147F147E00120009
:10005E00F930B3FD7F147E001200F9750C04AF0C5D
:01006E00226F
:0300000002010FEB
:0C010F00787FE4F6D8FD75810C0200C377
:00000001FF
