:10023D00E888B5E69CBAE6ADA3E59CA8E6978BE801
:10024D00BDACE380820D0A00E888B5E69CBAE6AD48
:10025D00A3E59CA8E5BE80E5A48DE6978BE8BDAC33
:06026D00E380820D0A008F
:0402AD000212000534
:1002BE00438901758AA4758CFFC28DD28CD2A92276
:10000E00759850438920758BFD758DFDC2ABD28ED0
:05001E00D2ACD2AF22BC
:080003008F993099FDC299228A
:100273008B168A178918AB16AA17A9181200B26031
:10028300130518E5187002051714F91200B2FF12CE
:05029300000380E222DF
:10018D0012000E1202BE7BFF7A02793D12027375C8
:10019D0012007513047F027E001202980513E513F9
:1001AD0070020512C39415E512940040E87FD07ECD
:1001BD00071202987512007513157F027E00120248
:1001CD0098E513151370021512D3E5139404E51277
:0F01DD00940050E67BFF7A02795512027380FE80
:030023000202CE08
:0602CE00309802C29832D4
:03000B000201EC03
:1001EC00C0E0C0F0C0D075D000C000C004C005C0D5
:1001FC0006C007758AA4758CFFC3E5159513E51425
:10020C0095125004D2A78002C2A70515E5157002FD
:10021C000514AE14FF7C007DA01200CB8C148D1540
:10022C00D007D006D005D004D000D0D0D0F0D0E08C
:01023C00328F
:0C02B1000A083F065B4F666D7D077F6FFB
:10012000EF14B40800505490013575F003A4C58352
:1001300025F0C5837302014D0201510201550201F0
:100140005902015D02016502016D020175D2A480B0
:100150000ED2A48012D2A48016D2A4801AC2A4D235
:10016000A3D2A28016C2A4D2A3C2A2800EC2A4C2ED
:10017000A3D2A28006C2A4C2A3C2A274082DF8E62C
:0D018000F5807F017E00120298E4F58022D8
:10029800EF4E6010007D027CC7DCFEDDFCEF1F70B6
:0402A800EF1E80ECD9
:0102AC00222F
:03000000020026D5
:0C002600787FE4F6D8FD75811802006DAB
:1000B200BB010689828A83E0225002E722BBFE024C
:0900C200E32289828A83E493227F
:1000CB00BC000BBE0029EF8DF084FFADF022E4CC19
:1000DB00F875F008EF2FFFEE33FEEC33FCEE9DECE2
:1000EB00984005FCEE9DFE0FD5F0E9E4CEFD22ED28
:1000FB00F8F5F0EE8420D21CFEADF075F008EF2F72
:10010B00FFED33FD4007985006D5F0F222C398FD62
:05011B000FD5F0EA22FF
:1000320002018DE493A3F8E493A34003F68001F256
:1000420008DFF48029E493A3F85407240CC8C333CF
:10005200C4540F4420C8834004F456800146F6DF9E
:10006200E4800B01020408102040809002ADE47E7F
:10007200019360BCA3FF543F30E509541FFEE49393
:10008200A360010ECF54C025E060A840B8E493A35A
:10009200FAE493A3F8E493A3C8C582C8CAC583CA85
:1000A200F0A3C8C582C8CAC583CADFE9DEE780BE3D
:0102BD000040
:00000001FF
