:10009A001D0220022103220120021D021902190158
:1000AA001B011D021D021B0219021B0400041D0272
:1000BA0020022103220120021D02190219011B013B
:1000CA001D021D021B0219021B0400041E041E0449
:1000DA001E0222022204200420021D021B04000424
:1000EA001D0220022103220120021D021902190108
:0D00FA001B011D021D021B021B021904FF49
:10010700204A0A0000F88CF8F3F95BF9B8FA15FAF7
:1001170067FAB9FB04FB4BFB90FBCFFC10FC44FCDC
:1001270079FCACFCDCFD09FD34FD5CFD82FDA6FD20
:10013700C8FDE8FE06FE22FE3DFE56FE6EFE85FE6B
:0D0147009AFEAEFEC1FED3FEE4FEF4FF03FF
:100189001201BAE50890009A93FFF460208F0905DF
:1001990008E5089375F06BA4FFAEF01201D10508CC
:1001A900C28C7F057E001201D1D28C80D6C28C8090
:0101B900FE47
:03000B000201559A
:10015500C0E0C0D075D000C000C006E50925E02488
:100165000AF8E6FE08E64E6012E50925E0240AF8DD
:10017500E6FE08E6F58AEEF58CB2B5D006D000D0DD
:04018500D0D0E032C4
:1001BA005389F0438901758A66758CFCC28DD28C8D
:0701CA00D2A9D2AFC2B92295
:1001D100EF1FAC0670011E4C600B007D027CC7DC7A
:0501E100FEDDFC80EBD7
:0101E60022F6
:0300000002000EED
:0C000E00787FE4F6D8FD758153020055A0
:10001A00020189E493A3F8E493A34003F68001F272
:10002A0008DFF48029E493A3F85407240CC8C333E7
:10003A00C4540F4420C8834004F456800146F6DFB6
:10004A00E4800B0102040810204080900107E47E3E
:10005A00019360BCA3FF543F30E509541FFEE493AB
:10006A00A360010ECF54C025E060A840B8E493A372
:10007A00FAE493A3F8E493A3C8C582C8CAC583CA9D
:10008A00F0A3C8C582C8CAC583CADFE9DEE780BE55
:0101540000AA
:00000001FF
