:09037700636C6F636B3A003A00FD
:1000A2001203341202F17BFF7A0379777D017F011B
:1000B2001202937BFF7A03797E7D037F0212029301
:1000C2007BFF7A03797E7D057F021202937BFF7AA2
:1000D20003797E7D067F02120293E51AFB7A007590
:1000E2000C027D077F021202D4E51CFB7A00750C1C
:1000F200027D047F021202D4E51BFB7A00750C021A
:090102007D017F021202D480D1BC
:03000B0002016C83
:04016C00C0E0C0D05F
:10017000758A66758CFC0519E51970020518C3941B
:10018000E8E51894034029751800751900051AE56B
:100190001A943C4005751A00051CE51CC3943C40AC
:1001A00005751C00051BE51BC394184003751B0057
:0501B000D0D0D0E032C8
:10030800EF1FAC0670011E4C600B007D027CC7DC41
:05031800FEDDFC80EB9E
:01031D0022BD
:10010B00E4F52720B1137F14FE12030830B1FD7FF5
:10011B00147E0012030875270120B0147F147E0093
:10012B0012030830B0FD7F147E00120308752702FE
:10013B0020B2147F147E0012030830B2FD7F147EB0
:10014B000012030875270320B3147F147E001203DB
:10015B000830B3FD7F147E00120308752704AF2708
:01016B002271
:06034800C2A58F80D2A7C0
:08034E007F027EEFDEFEDFFC02
:010356002284
:0A036300C2A6120348C2A702034E0F
:1002B600CFCDCFCECCCE12004D7C007D0A12004DA4
:0402C600ED2430FFF4
:0A02CA00D2A6120348C2A702034E99
:10031E00AE07BE0104ED148006BE0209ED243F4473
:06032E0080FF12036322B0
:100334007F381203637F0C1203637F061203637F0B
:04034400010203634C
:0A036D00AC0312031EAF040202CA23
:060293008B088A09890AAC
:1002990012031EE4FDAB08AA09A90A8D8275830021
:0C02A90012000EFF60061202CA0D80E970
:0102B5002226
:0C0260007F0AEA24FFFDE434FFFC7E006E
:08026C008E0D8F0E8C0F8D101A
:100274007F017E00E4FBEBC39510E50F6480F87406
:0E0284008098500AAC0DAD0E12003B0B80E8C6
:010292002249
:0402D4008A0A8B0BFC
:1002D80012031EAA0CEAD39400400D120260AC0A65
:0802E800AD0B1202B61A80ED05
:0102F00022EB
:1001B50012031EC3EA64809480400B7F2B1202CA8F
:1001C5008A168B17800E7F2D1202CAC3E49BF51782
:1001D500E49AF516AA15EAD39400400D120260AC14
:0901E50016AD171202B61A80EDE6
:0101EE0022EE
:0401EF008A1F8B20B8
:1001F30012031EAA21EAD3940040297F101202623F
:10020300AC1FAD20CFCDCFCECCCE12004DEF540FCF
:10021300FEC3940AEE5004243080022437FF1202F6
:04022300CA1A80D1A2
:0102270022B4
:040228008A248B2574
:10022C0012031EAA26EAD394004028EA24FFFDE418
:10023C0034FFFC7F027E0012026CAC24AD25CFCDC6
:10024C00CFCECCCE12004DEF54012430FF1202CA97
:03025C001A80D233
:01025F00227C
:1002F1005389F0438901758A66758CFCC28DD28C55
:07030100D2A9D2AFC2B9225C
:03000000020357A1
:0C035700787FE4F6D8FD7581270200A233
:10000E00BB010CE58229F582E5833AF583E02250A7
:10001E0006E92582F8E622BBFE06E92582F8E222F1
:0D002E00E58229F582E5833AF583E493220B
:10003B00EF8DF0A4A8F0CF8CF0A428CE8DF0A42ED9
:02004B00FE2293
:10004D00BC000BBE0029EF8DF084FFADF022E4CC97
:10005D00F875F008EF2FFFEE33FEEC33FCEE9DEC60
:10006D00984005FCEE9DFE0FD5F0E9E4CEFD22EDA6
:10007D00F8F5F0EE8420D21CFEADF075F008EF2FF0
:10008D00FFED33FD4007985006D5F0F222C398FDE1
:05009D000FD5F0EA227E
:00000001FF
